S00D00004C415344322E73726563C1
S11300000C9424010C94C9080C94B4090C94C60BE8
S11300100C948B0B0C9435080C9441010C94410105
S11300200C9441010C9441010C9441010C94410144
S11300300C9441010C9441010C94EE070C94410181
S11300400C9441010C9441010C94E60B0C94410175
S11300500C9441010C94150A0C9441010C94410137
S11300600C9441010C944101000000000000005F69
S113007000000007000700147F147F14242A7F2A3D
S11300801223130864623649552250000503000008
S1130090001C2241000041221C0014083E081408E0
S11300A0083E0808005030000008080808080060EE
S11300B060000020100804023E5149453E00427F82
S11300C0400042615149462141454B311814127F89
S11300D01027454545393C4A494930017109050312
S11300E03649494936064949291E0036360000007A
S11300F0563600000814224100141414141400414C
S11301002214080201510906324979413E7E111137
S1130110117E7F494949363E414141227F41412276
S11301201C7F494949417F090909013E4149497AEE
S11301307F0808087F00417F41002040413F017F44
S1130140081422417F404040407F020C027F7F041C
S113015008107F3E4141413E7F090909063E415155
S1130160215E7F09192946464949493101017F0128
S1130170013F4040403F1F2040201F3F4038403F48
S11301806314081463070870080761514945430064
S11301907F41410002040810200041417F00040215
S11301A00102044040404040000102040020545435
S11301B054787F48444438384444442038444448BC
S11301C07F3854545418087E0901020C5252523E8E
S11301D07F0804047800447D40002040443D007FB3
S11301E01028440000417F40007C041804787C08F7
S11301F004047838444444387C141414080814144F
S1130200187C7C080404084854545420043F444097
S1130210203C4040207C1C2040201C3C4030403C82
S113022044281028440C5050503C4464544C44001E
S11302300836410000007F00000041360800100825
S1130240081008000000000011241FBECFEFD8E002
S1130250DEBFCDBF11E0A0E0B1E0EAEBF6E202C000
S113026005900D92AC36B107D9F723E0ACE6B1E0C6
S113027001C01D92A53CB207E1F70E949C0C0C94AE
S11302805B130C940000CF93DF9300D0CDB7DEB79F
S11302909A83898385EC90E029813A81232F33273F
S11302A0FC01208384EC90E02981FC01208381EC13
S11302B090E028E1FC01208382EC90E026E0FC0140
S11302C0208300000F900F90DF91CF910895CF937A
S11302D0DF93CDB7DEB7000080EC90E0FC018081B5
S11302E08823D4F786EC90E0FC018081DF91CF91E4
S11302F00895CF93DF931F92CDB7DEB789830000B3
S113030080EC90E0FC018081882F90E08072992736
S1130310892BB1F386EC90E02981FC012083000055
S11303200F90DF91CF910895CF93DF93CDB7DEB7D0
S1130330809100018F3120F08EE18093000107C08D
S113034080910001853018F485E08093000100005D
S1130350DF91CF910895CF93DF9300D0CDB7DEB76F
S11303609A83898389819A81FC0180818B3028F06A
S113037089819A812AE0FC01208300000F900F906C
S1130380DF91CF910895CF93DF93CDB7DEB78091FE
S11303900001882F90E082959295907F9827807F26
S11303A09827092E000CAA0BBB0BBC01CD010E949F
S11303B0EB11DC01CB019C01AD0160E070E68AE643
S11303C097E40E944111DC01CB01BC01CD01DF9116
S11303D0CF910895CF93DF93CDB7DEB72A970FB6A9
S11303E0F894DEBF0FBECDBF1A8668E280E00E949B
S11303F09A101A82198215C089819A8101968756AA
S11304009C4FFC0140819E012D5F3F4F89819A8161
S1130410820F931FFC01408389819A8101969A83FC
S1130420898389819A8107973CF380910601909191
S11304300701019731F4CE01039661E00E94771021
S113044011C08091060190910701029731F461E097
S11304508AE091E00E94771005C061E082E191E0BA
S11304600E94771068E28DE20E949A1061E088E1B0
S113047091E00E94771000002A960FB6F894DEBF30
S11304800FBECDBFDF91CF910895EF92FF920F93EE
S11304901F93CF93DF93CDB7DEB710929203909161
S11304A000018DEC989F812D112486958695869563
S11304B0880F282F220F220F820FE92EE81A8E2D83
S11304C0805D80939003909100018DEC989F812D25
S11304D01124869586958695805D80938F038091FF
S11304E06E01882F90E0880F991F9C01220F331F03
S11304F0220F331F820F931F24E630E0B9010E94BC
S113050019132AE030E0B9010E941913805D809329
S1130510BE0380916E01882F90E0880F991F9C0183
S1130520220F331F220F331F820F931F24E630E064
S1130530B9010E9419132AE030E0B9010E9419138D
S1130540CB01805D8093BD0380916E01882F90E084
S1130550880F991F9C01220F331F220F331F820F14
S1130560931F24E630E0B9010E941913CB01805D8A
S11305708093BC038091BB0399E2899F912D112440
S113058092959F7024E6929F902D1124F82EF91ACB
S11305909F2D8DEC989F812D1124869586958695A7
S11305A0880F282F220F220F820F092F081B802F5C
S11305B0805D8093B5039091BB0389E2989F812D60
S11305C0112482958F7024E6829F802D1124192F87
S11305D0181B812F9DEC899F812D1124869586956A
S11305E08695805D8093B4039091BB0389E2989FC4
S11305F0812D112482958F70805D8093B303E091E7
S11306009303F0919403CF019695879596958795DA
S11306109C01ABE7B4E10E942D13AC0156954795BC
S113062024E6249FC001259F900D1124AF01481B8F
S1130630590B9A01ADECBCEC0E942D13969587954D
S11306409695879596958795880F991F9C01220FFB
S1130650331F220F331F820F931F9A01281B390B5C
S1130660C901805D8093B903409193035091940331
S1130670CA0196958795969587959C01ABE7B4E159
S11306800E942D139695879564E6689F9001699F53
S1130690300D1124CA01821B930B9C01ADECBCEC00
S11306A00E942D139695879596958795969587958F
S11306B0805D8093B8038091930390919403969501
S11306C08795969587959C01ABE7B4E10E942D131D
S11306D096958795805D8093B7031092B2038091BD
S11306E0AA039091AB03A091AC03B091AD0320E0B9
S11306F030E048EC52E4BC01CD010E94A012DC01C0
S1130700CB01BC01CD010E94B311DC01CB0124E675
S113071030E0B9010E9419132AE030E0B9010E94C7
S11307201913805D8093B1038091AA039091AB0368
S1130730A091AC03B091AD0320E030E048EC52E46A
S1130740BC01CD010E94A012DC01CB01BC01CD0192
S11307500E94B311DC01CB0124E630E0B9010E9410
S113076019132AE030E0B9010E941913CB01805D0E
S11307708093B0038EE28093AF038091AA0390919B
S1130780AB03A091AC03B091AD0320E030E048ECA2
S113079052E4BC01CD010E94A012DC01CB01BC01DA
S11307A0CD010E94B311DC01CB0124E630E0B90194
S11307B00E941913CB01805D8093AE038091950351
S11307C090919603A0919703B091980320E030E0B4
S11307D040E251E4BC01CD010E94A012DC01CB0136
S11307E0BC01CD010E94B311DC01CB019093C40381
S11307F08093C303E091C303F091C403CF019695A2
S11308008795969587959C01ABE7B4E10E942D13DB
S1130810AC015695479524E6249FC001259F900D71
S11308201124AF01481B590B9A01ADECBCEC0E949A
S11308302D13969587959695879596958795880F08
S1130840991F9C01220F331F220F331F820F931F06
S11308507A01E81AF90AC701805D8093A8038EE241
S11308608093A7034091C3035091C403CA01969592
S11308708795969587959C01ABE7B4E10E942D136B
S11308809695879564E6689F9001699F300D1124C1
S1130890CA01821B930B9C01ADECBCEC0E942D138E
S11308A0969587959695879596958795805D80937F
S11308B0A6038091C3039091C4039695879596955A
S11308C087959C01ABE7B4E10E942D13969587951B
S11308D0805D8093A503909101018DEC989F812DFB
S11308E01124869586958695880F282F220F220F2E
S11308F0820FF92EF81A8F2D805D8093A303209127
S11309007101309172014091730150917401809191
S1130910850190918601A0918701B09188017901A8
S11309208A01E81AF90A0A0B1B0BD801C701883C93
S11309309105A105B10508F4FFC180916C018823DC
S113094009F046C00E94440F60E080E00E949A10C3
S113095061E08DE191E00E9477106AE080E00E94FE
S11309609A1061E083EB93E00E9477106AE08EE1D5
S11309700E949A1061E08BE291E00E94771064E19A
S113098080E00E949A1061E087EB93E00E94771068
S113099064E18EE10E949A1061E08FE291E00E948E
S11309A077106EE180E00E949A1061E085EA93E09E
S11309B00E9477106EE18EE10E949A1061E084E358
S11309C091E00E9477100E94EA010E94AD10A4C138
S11309D080916C01823009F0CAC00E94440F60E02B
S11309E080E00E949A1061E08DE191E00E9477100E
S11309F064E180E00E949A1061E087EB93E00E943A
S1130A00771064E18EE10E949A1061E08FE291E038
S1130A100E9477106EE180E00E949A1061E08EEAF5
S1130A2093E00E9477108091AA039091AB03A09168
S1130A30AC03B091AD0301E023E333E34BED50E4A9
S1130A40BC01CD010E949B1218160CF000E08091AD
S1130A50AA039091AB03A091AC03B091AD0311E054
S1130A6023E333E34BEE50E4BC01CD010E943C117F
S1130A7088230CF010E0802F812B082F10E0809148
S1130A80AA039091AB03A091AC03B091AD03FF24F2
S1130A90F39426E636E64EEE50E4BC01CD010E9406
S1130AA09B1218160CF0F12C8F2D90E0082B192BAB
S1130AB08091AA039091AB03A091AC03B091AD03D4
S1130AC0FF24F39426E636E64EEF50E4BC01CD0154
S1130AD00E943C1188230CF0F12C8F2D90E0082B00
S1130AE0192B8091AA039091AB03A091AC03B09110
S1130AF0AD03FF24F39423E333E34BED50E4BC0153
S1130B00CD010E943C1188230CF0F12C8F2D90E034
S1130B10082B192B8091AA039091AB03A091AC03ED
S1130B20B091AD03FF24F3942AE939E949EF50E485
S1130B30BC01CD010E949B1218160CF0F12C8F2DD4
S1130B4090E0802B912B892B69F081E080939203B4
S1130B506EE18EE10E949A1061E086E391E00E94CA
S1130B60771002C0109292030E94AD10D5C08091FC
S1130B706C01843009F044C00E94440F60E080E0BE
S1130B800E949A1061E089E391E00E9477106AE084
S1130B9080E00E949A1061E08FE893E00E94771051
S1130BA06AE08EE10E949A1061E084E491E00E9480
S1130BB0771064E180E00E949A1061E08CEB93E08E
S1130BC00E94771064E18EE10E949A1061E08FE444
S1130BD091E00E9477106EE180E00E949A1061E03B
S1130BE083EA93E00E9477106EE18EE10E949A10EE
S1130BF061E083E591E00E9477100E94AD108CC003
S1130C0080916C01863009F044C00E94440F60E07A
S1130C1080E00E949A1061E089E391E00E947710DD
S1130C206AE080E00E949A1061E08FE893E00E94FD
S1130C3077106AE08EE10E949A1061E087E591E006
S1130C400E94771064E180E00E949A1061E08CEBCE
S1130C5093E00E94771064E18EE10E949A1061E0B3
S1130C6080E691E00E9477106EE180E00E949A1085
S1130C7061E083EA93E00E9477106EE18EE10E94C6
S1130C809A1061E083E591E00E9477100E94AD1014
S1130C9043C00E94440F60E080E00E949A1061E02B
S1130CA089E391E00E9477106AE080E00E949A1044
S1130CB061E08FE893E00E9477106AE08EE10E9481
S1130CC09A1061E087E591E00E94771064E180E08A
S1130CD00E949A1061E08CEB93E00E94771064E12B
S1130CE08EE10E949A1061E08FE491E00E947710F7
S1130CF06EE180E00E949A1061E083EA93E00E9432
S1130D0077106EE18EE10E949A1061E086E691E030
S1130D100E9477100E94AD10809171019091720130
S1130D20A0917301B0917401809385019093860121
S1130D30A0938701B09388010000DF91CF911F91A8
S1130D400F91FF90EF9008950F931F93CF93DF932C
S1130D50CDB7DEB78091950390919603A091970348
S1130D60B091980301E020E030E044E252E4BC0199
S1130D70CD010E949B1218160CF000E0809195039F
S1130D8090919603A0919703B091980311E020E00D
S1130D9030E04CE052E4BC01CD010E943C118823B8
S1130DA00CF010E0802F812B282F30E080919303EA
S1130DB09091940341E0CC9708F040E0842F90E0B8
S1130DC0282B392B88E890E0FC018081918141E057
S1130DD0803D974009F040E0842F90E0282B392B88
S1130DE09091920381E0913009F080E0882F90E0A7
S1130DF0822B932B892B31F08BE290E02FEFFC01B7
S1130E00208305C08BE290E02FE7FC0120830000E3
S1130E10DF91CF911F910F910895CF92DF92EF92BE
S1130E20FF920F931F93CF93DF9300D0CDB7DEB71C
S1130E309A83898380910001882F90E00E94C301E6
S1130E40DC01CB0180938B0190938C01A0938D01E5
S1130E50B0938E0180910801909109010297B1F439
S1130E6081E090E0909309018093080189819A813F
S1130E70FC018081918121E0892B09F020E0222F5F
S1130E8030E089819A81FC01318320830E944502EC
S1130E90209171013091720140917301509174015C
S1130EA08091750190917601A0917701B0917801BC
S1130EB079018A01E81AF90A0A0B1B0BD801C70148
S1130EC0BC01CD010E94E9116B017C0180918B0171
S1130ED090918C01A0918D01B0918E0120E030E0C1
S1130EE040E051E4BC01CD010E94A012DC01CB0121
S1130EF09C01AD01C701B6010E949B1288230CF42A
S1130F0061C089819A81FC0180819181892BE9F0FA
S1130F1088E890E020910801309109014AEF429F4E
S1130F20B001439F700D112420910101422F50E024
S1130F30649F9001659F300D749F300D11242053E0
S1130F40384FFC013183208322C088E890E028E8F0
S1130F5030E0F9012081318140910801509109016B
S1130F60EAEFE49FB001E59F700D11244091010167
S1130F70442F50E0649FF001659FF00D749FF00DC5
S1130F801124AF01241B350BFC0131832083809194
S1130F90710190917201A0917301B09174018093D9
S1130FA0750190937601A0937701B09378018091B5
S1130FB00801909109010196909309018093080119
S1130FC00E94A40600000F900F90DF91CF911F9113
S1130FD00F91FF90EF90DF90CF9008951F920F92A2
S1130FE000905F000F9211248F939F93AF93BF9350
S1130FF0CF93DF93CDB7DEB78091710190917201E9
S1131000A0917301B09174010196A11DB11D80934B
S1131010710190937201A0937301B0937401000065
S1131020DF91CF91BF91AF919F918F910F900092DB
S11310305F000F901F901895CF93DF93CDB7DEB765
S11310408AE890E020916E01422F50E068EC649FA2
S11310509001659F300D11242053384FFC013183DA
S113106020830000DF91CF9108951F920F9200908A
S11310705F000F921124EF92FF920F931F932F930F
S11310803F934F935F936F937F938F939F93AF930C
S1131090BF93EF93FF93CF93DF93CDB7DEB78091E8
S11310A06F018823B1F48091710190917201A09134
S11310B07301B09174018093790190937A01A093A4
S11310C07B01B0937C0180916F018F5F80936F01EE
S11310D047C080916F01813009F042C08091710155
S11310E090917201A0917301B091740180937D017C
S11310F090937E01A0937F01B093800110926F01C1
S113110020917D0130917E0140917F0150918001B9
S11311108091790190917A01A0917B01B0917C0139
S113112079018A01E81AF90A0A0B1B0BD801C701D5
S1131130BC01CD010E94E911DC01CB019C01AD0190
S113114060E070E68AEE96E40E944111DC01CB0176
S1131150BC01CD010E94BA11DC01CB018093BB0319
S11311600000DF91CF91FF91EF91BF91AF919F91DB
S11311708F917F916F915F914F913F912F911F912B
S11311800F91FF90EF900F9000925F000F901F90CF
S113119018951F920F9200905F000F921124EF9206
S11311A0FF920F931F932F933F934F935F936F93EC
S11311B07F938F939F93AF93BF93EF93FF93CF93BB
S11311C0DF93CDB7DEB780916C0191E0823009F0F6
S11311D090E020916C0181E0243009F080E0892BBB
S11311E0882351F0809100018F5F8093000180E09B
S11311F091E00E9494019FC080916C01863009F0B7
S11312008AC0809193039091940301E08535910500
S113121008F000E08091AA039091AB03A091AC0385
S1131220B091AD0311E023E333E34BEE50E4BC0192
S1131230CD010E943C1188230CF010E0802F812BFB
S1131240882309F45CC080916D01823008F457C092
S11312502091710130917201409173015091740198
S11312608091020190910301A0910401B0910501C4
S113127079018A01E81AF90A0A0B1B0B2091020171
S113128030910301409104015091050188EE93E0EF
S1131290DC010E943C13DC01CB018E159F05A007E5
S11312A0B10730F480916E018F5F80936E0104C0AA
S11312B080916E0180936E018091020190910301EF
S11312C0A0910401B091050181309D4DAD46B10559
S11312D020F081E08093C20302C01092C203809187
S11312E0710190917201A0917301B0917401809386
S11312F0020190930301A0930401B093050180912E
S11313006E018F5F80936E018EE691E00E94AB01C7
S11313100E941C0810C080916C01883061F4809197
S113132001018F5F8093010180910101893018F0E0
S113133088E0809301010000DF91CF91FF91EF914C
S1131340BF91AF919F918F917F916F915F914F91D9
S11313503F912F911F910F91FF90EF900F9000926A
S11313605F000F901F9018951F920F9200905F00DE
S11313700F9211242F933F934F935F936F937F9317
S11313808F939F93AF93BF93EF93FF93CF93DF9389
S1131390CDB7DEB780916C01823021F080916C0171
S11313A0843051F48091000181508093000180E0E9
S11313B091E00E94940124C080916C01863081F4F4
S11313C080916E01882329F080916E018150809371
S11313D06E018EE691E00E94AB010E941C0810C0D1
S11313E080916C01883061F4809101018150809377
S11313F0010180910101882319F481E080930101A6
S11314000000DF91CF91FF91EF91BF91AF919F9138
S11314108F917F916F915F914F913F912F910F9099
S113142000925F000F901F9018951F920F920090EA
S11314305F000F921124EF92FF920F931F932F934B
S11314403F934F935F936F937F938F939F93AF9348
S1131450BF93EF93FF93CF93DF93CDB7DEB7209184
S11314607101309172014091730150917401809126
S1131470810190918201A0918301B091840179014D
S11314808A01E81AF90A0A0B1B0BD801C70186392D
S11314909105A105B10508F425C180917001882347
S11314A009F088C08CE790E020E4FC0120838EE7FB
S11314B090E02EE3FC01208388E790E0FC0180812A
S11314C09181CC01A0E0B0E0BC01CD010E94E91102
S11314D0DC01CB018093890390938A03A0938B034F
S11314E0B0938C03809170018F5F80937001809121
S11314F0890390918A03A0918B03B0918C0320E01F
S113150030E04DEC53E4BC01CD010E943C111816AF
S11315106CF080E090E0A0EFB1E4809395039093A9
S11315209603A0939703B0939803CCC0809189034A
S113153090918A03A0918B03B0918C0320E030E05A
S113154043E354E4BC01CD010E949B1288236CF058
S113155080E090E0A4E3B2E4809395039093960333
S1131560A0939703B0939803ADC0809189039091A1
S11315708A03A0918B03B0918C0320E030E04DE40A
S113158053E4BC01CD010E94D010DC01CB0120E06A
S113159030E044EA51E4BC01CD010E944111DC0178
S11315A0CB018093950390939603A0939703B093F4
S11315B0980388C080917001813009F045C08CE7A0
S11315C090E021E4FC0120838EE790E02DE3FC0110
S11315D02083809170018F5F8093700188E790E091
S11315E0FC01808191819093C1038093C003809119
S11315F0C0039091C103092E000CAA0BBB0BBC01C4
S1131600CD010E94EB11DC01CB0120E030E048EC7D
S113161052E4BC01CD010E94A012DC01CB0120E008
S113162030EC4CE454E4BC01CD010E944111DC01D6
S1131630CB01BC01CD010E94BA11DC01CB01909316
S11316409403809393033EC08CE790E022E4FC0172
S113165020838EE790E02BE3FC012083109270013D
S113166088E790E0FC018081918190938E038093C0
S11316708D0380918D0390918E03CC01A0E0B0E0A6
S1131680BC01CD010E94E911DC01CB012DEC3CEC45
S11316904CE85AE3BC01CD010E94A012DC01CB014D
S11316A023E333E34BED50E4BC01CD010E94D010A1
S11316B0DC01CB018093AA039093AB03A093AC030A
S11316C0B093AD038091710190917201A091730167
S11316D0B09174018093810190938201A09383015E
S11316E0B09384010000DF91CF91FF91EF91BF91FE
S11316F0AF919F918F917F916F915F914F913F91A6
S11317002F911F910F91FF90EF900F9000925F0027
S11317100F901F9018951F920F9200905F000F92E8
S113172011242F933F934F935F936F937F938F93E2
S11317309F93AF93BF93EF93FF93CF93DF93CDB773
S1131740DEB780916D018F5F80936D0180916D0193
S1131750805D0E94790180916D01843010F01092B7
S11317606D010000DF91CF91FF91EF91BF91AF9197
S11317709F918F917F916F915F914F913F912F91A5
S11317800F9000925F000F901F9018951F920F9278
S113179000905F000F9211248F93CF93DF93CDB706
S11317A0DEB780916C018F5F80936C0180916C0136
S11317B08A3011F410926C010000DF91CF918F9167
S11317C00F9000925F000F901F9018951F920F9238
S11317D000905F000F9211240F931F932F933F9358
S11317E04F935F936F937F938F939F93AF93BF9325
S11317F0EF93FF93CF93DF9300D000D0CDB7DEB744
S11318000091890110918A010E946701282FC80163
S113181087569C4FFC0120838091890190918A0115
S1131820089709F065C081E090E0909307018093E8
S113183006018091990391E08B3309F490E02091A3
S1131840A10381E02A3309F480E0892B282F30E0BA
S113185090919D0381E0983709F480E0882F90E00F
S1131860822B932B892B29F01092070110920601E9
S11318703AC081E090E09A83898314C089819A8177
S113188087569C4FFC018081882F90E0C0970A976F
S113189024F0109207011092060189819A81019621
S11318A09A83898389819A81049744F385E090E03F
S11318B09C838B8314C08B819C8187569C4FFC0135
S11318C08081882F90E0C0970A9724F01092070136
S11318D0109206018B819C8101969C838B838B8162
S11318E09C81089744F310928A011092890109C0DF
S11318F08091890190918A01019690938A01809345
S1131900890100000F900F900F900F90DF91CF91FD
S1131910FF91EF91BF91AF919F918F917F916F91C3
S11319205F914F913F912F911F910F910F900092D2
S11319305F000F901F901895CF93DF9300D0CDB721
S1131940DEB781E090E09A83898387E690E00E9485
S1131950430184E290E026E0FC0120838AE290E0E7
S113196020E8FC01208387E290E0FC0110828BE2F6
S113197090E02FE7FC01208388E290E02FE7FC0150
S1131980208385E290E020E8FC01208386E890E053
S11319902FE33CE9FC013183208380E890E022EAD4
S11319A0FC01208381E890E02AE1FC01208388E89F
S11319B090E020ED37E0FC013183208389E690E05C
S11319C02AE0FC0120838DE390E023E0FC012083E6
S11319D08AE790E02FEEFC0120838BE790E0FC0186
S11319E0108284E490E022E0FC01208385E490E00E
S11319F023E0FC01208387E490E029EFFC012083AD
S1131A008EE690E022E0FC01208388E690E027E067
S1131A10FC0120838BE390E027E0FC0120838BE62C
S1131A2090E020E8FC0120838CE690E020E4FC01B7
S1131A3020838DE690E020E1FC01208381EC90E09E
S1131A4021EC30E0F90120812068FC0120837894A6
S1131A500E94C40DCE0101960E940D07FBCF1F9377
S1131A60CF93DF9300D0CDB7DEB789836A8385E255
S1131A7090E025E230E0F90120812E7FFC012083F3
S1131A808A81882351F085E290E025E230E0F90173
S1131A9020812061FC01208309C085E290E025E2D9
S1131AA030E0F90120812F7EFC01208310E03CC04E
S1131AB08981882F90E0212F30E047E050E0BA017F
S1131AC0621B730B9B0102C0959587952A95E2F7DB
S1131AD081709927892B51F085E290E025E230E06E
S1131AE0F90120812062FC01208309C085E290E095
S1131AF025E230E0F90120812F7DFC01208385E27D
S1131B0090E025E230E0F90120812064FC0120838B
S1131B1085E290E025E230E0F90120812F7BFC0191
S1131B202083812F11E0180F183010F285E290E025
S1131B3025E230E0F90120812160FC0120830000CE
S1131B400F900F90DF91CF911F910895CF93DF9362
S1131B501F92CDB7DEB7898360E089810E942F0D83
S1131B6000000F90DF91CF910895CF93DF931F92E0
S1131B70CDB7DEB7898361E089810E942F0D000013
S1131B800F90DF91CF9108950F931F93CF93DF931D
S1131B90CDB7DEB76C970FB6F894DEBF0FBECDBFDE
S1131BA084E290E024E230E0F90120812160FC012C
S1131BB0208384E290E024E230E0F901208128606F
S1131BC0FC01208384E290E024E230E0F9012081EA
S1131BD02061FC01208384E290E024E230E0F901FA
S1131BE020812062FC01208384E290E024E230E042
S1131BF0F90120812064FC01208385E290E025E244
S1131C0030E0F90120812860FC01208385E290E026
S1131C1025E230E0F90120812160FC01208380E08D
S1131C2090E0A0E2B1E489839A83AB83BC8320E093
S1131C3030E04AE753E469817A818B819C810E9478
S1131C40A012DC01CB018B8B9C8BAD8BBE8B20E077
S1131C5030E040E85FE36B897C898D899E890E942E
S1131C603C1188232CF481E090E0988F8F8B3FC047
S1131C7020E03FEF4FE757E46B897C898D899E898B
S1131C800E949B1218164CF520E030E040E251E42B
S1131C9069817A818B819C810E94A012DC01CB0135
S1131CA0BC01CD010E94BA11DC01CB01988F8F8B4E
S1131CB00FC089E190E09A8F898F898D9A8D019761
S1131CC0F1F79A8F898F8F89988D0197988F8F8BD1
S1131CD08F89988D892B69F714C06B897C898D89CC
S1131CE09E890E94BA11DC01CB01988F8F8B8F895A
S1131CF0988D9C8F8B8F8B8D9C8D0197F1F79C8F8A
S1131D008B8F85E290E025E230E0F9012081277F86
S1131D10FC01208380E090E0ACE8B2E48D839E83F4
S1131D20AF83B88720E030E04AE753E46D817E81D9
S1131D308F8198850E94A012DC01CB0189879A8744
S1131D40AB87BC8720E030E040E85FE369857A85B3
S1131D508B859C850E943C1188232CF481E090E0C3
S1131D609E878D873FC020E03FEF4FE757E46985AA
S1131D707A858B859C850E949B1218164CF520E071
S1131D8030E040E251E46D817E818F8198850E942C
S1131D90A012DC01CB01BC01CD010E94BA11DC010F
S1131DA0CB019E878D870FC089E190E0988B8F8748
S1131DB08F8598890197F1F7988B8F878D859E85FC
S1131DC001979E878D878D859E85892B69F714C021
S1131DD069857A858B859C850E94BA11DC01CB01CB
S1131DE09E878D878D859E859A8B898B89899A8913
S1131DF00197F1F79A8B898B85E290E025E230E038
S1131E00F90120812860FC01208385E290E025E22D
S1131E1030E0F90120812E7FFC01208381E20E94C1
S1131E20A60D83E10E94A60D86E00E94A60D82EC19
S1131E300E94A60D80E20E94A60D89E00E94A60DD4
S1131E4080E80E94A60D80E40E94A60D00E010E048
S1131E5005C080E00E94B50D0F5F1F4F083FF1E001
S1131E601F07B8F388E00E94A60D8CE00E94A60D1F
S1131E7000006C960FB6F894DEBF0FBECDBFDF91A5
S1131E80CF911F910F9108950F931F93CF93DF93D9
S1131E90CDB7DEB780E80E94A60D80E40E94A60DAF
S1131EA0109287031092880300E010E007C0C80175
S1131EB081579E4FFC0110820F5F1F4F083FF1E0D6
S1131EC01F07A8F30000DF91CF911F910F91089590
S1131ED0CF93DF9300D000D01F92CDB7DEB78B83B2
S1131EE06C834D838C81869586958695882F90E0AA
S1131EF044E5489F9001499F300D11248B81882F20
S1131F0090E0820F931F81579E4F9A8389838D811E
S1131F108823C9F089819A81FC018081482F8C81B2
S1131F20882F90E09C012770332781E090E002C065
S1131F30880F991F2A95E2F7842B282F89819A818B
S1131F40FC01208319C089819A81FC018081482F7A
S1131F508C81882F90E09C012770332781E090E0EA
S1131F6002C0880F991F2A95E2F780958423282FB1
S1131F7089819A81FC01208300000F900F900F90BB
S1131F800F900F90DF91CF9108950F931F93CF93EC
S1131F90DF9300D000D01F92CDB7DEB78C836D8362
S1131FA010E065C000E04EC08C81882F90E09C0159
S1131FB0205231099D81812F692F0E940D13482FD2
S1131FC050E0C901880F991F880F991F820F931F32
S1131FD0840F951F88599F4F9A83898389819A8199
S1131FE0FC0184918B838B81282F30E09D81802F8D
S1131FF0692F0E940D13882F90E0A90102C0559506
S113200047958A95E2F7CA0181709927892B61F077
S113201080918803982F900F80918703810F41E06E
S1132020692F0E94680F0BC080918803982F900F2E
S113203080918703810F40E0692F0E94680F802FF1
S113204001E0080F402F50E08D81282F30E0C901B6
S1132050880F991F880F991F880F991F821B930B54
S1132060481759070CF4A0CF812F11E0180F412F06
S113207050E08D81282F30E0C901880F991F880F07
S1132080991F820F931F481759070CF48BCF209187
S113209087039D81892F880F880F890F820F8F5F97
S11320A08093870380918703843570F010928703AF
S11320B0209188039D81892F880F880F880F891BA1
S11320C0820F8F5F8093880380918803803320F090
S11320D0109287031092880300000F900F900F90C6
S11320E00F900F90DF91CF911F910F910895CF938F
S11320F0DF9300D01F92CDB7DEB79A8389836B83B9
S11321000CC089819A819C012F5F3F4F3A832983B8
S1132110FC0180816B810E94C50F89819A81FC0139
S11321208081882371F700000F900F900F90DF914A
S1132130CF910895CF93DF9300D0CDB7DEB78983D5
S11321406A838981809387038A818093880300004E
S11321500F900F90DF91CF9108950F931F93CF931A
S1132160DF93CDB7DEB780E80E94A60D80E40E941D
S1132170A60D00E010E009C0C80181579E4FFC0184
S113218080810E94B50D0F5F1F4F083FF1E01F07CC
S113219098F30000DF91CF911F910F91089550584B
S11321A0BB27AA270E94E7100C9461120E945312C5
S11321B038F00E945A1220F039F49F3F19F426F4A3
S11321C00C9450120EF4E095E7FB0C944A12E92F9C
S11321D00E94721258F3BA176207730784079507AF
S11321E020F079F4A6F50C9494120EF4E0950B2EDD
S11321F0BA2FA02D0B01B90190010C01CA01A00155
S11322001124FF27591B99F0593F50F4503E68F1AF
S11322101A16F040A22F232F342F4427585FF3CFF0
S1132220469537952795A795F0405395C9F77EF4C1
S11322301F16BA0B620B730B840BBAF09150A1F00A
S1132240FF0FBB1F661F771F881FC2F70EC0BA0F90
S1132250621F731F841F48F4879577956795B79518
S1132260F7959E3F08F0B0CF9395880F08F0992713
S1132270EE0F9795879508950E94261208F481E041
S113228008950E9455110C9461120E945A1258F03C
S11322900E94531240F029F45F3F29F00C944A1233
S11322A051110C9495120C9450120E94721268F3FE
S11322B09923B1F3552391F3951B550BBB27AA27FB
S11322C062177307840738F09F5F5F4F220F331F35
S11322D0441FAA1FA9F335D00E2E3AF0E0E832D0FD
S11322E091505040E695001CCAF72BD0FE2F29D000
S11322F0660F771F881FBB1F261737074807AB07D2
S1132300B0E809F0BB0B802DBF01FF2793585F4F46
S11323103AF09E3F510578F00C944A120C949512B1
S11323205F3FE4F3983ED4F3869577956795B79528
S1132330F7959F5FC9F7880F911D9695879597F933
S11323400895E1E0660F771F881FBB1F62177307AC
S11323508407BA0720F0621B730B840BBA0BEE1FC1
S113236088F7E09508950E94BA116894B1110C940D
S1132370951208950E947A1288F09F5798F0B92F09
S11323809927B751B0F0E1F0660F771F881F991FA6
S11323901AF0BA95C9F714C0B13091F00E949412A2
S11323A0B1E008950C949412672F782F8827B85FB2
S11323B039F0B93FCCF3869577956795B395D9F7FE
S11323C03EF490958095709561957F4F8F4F9F4F08
S11323D00895E89409C097FB3EF490958095709514
S11323E061957F4F8F4F9F4F9923A9F0F92F96E95D
S11323F0BB279395F695879577956795B795F111D2
S1132400F8CFFAF4BB0F11F460FF1BC06F5F7F4F6E
S11324108F4F9F4F16C0882311F096E911C0772380
S113242021F09EE8872F762F05C0662371F096E889
S1132430862F70E060E02AF09A95660F771F881F58
S1132440DAF7880F9695879597F90895990F0008FC
S1132450550FAA0BE0E8FEEF16161706E807F90772
S1132460C0F012161306E407F50798F0621B730B0D
S1132470840B950B39F40A2661F0232B242B252B8E
S113248021F408950A2609F4A140A6958FEF811D31
S1132490811D089597F99F6780E870E060E00895D2
S11324A09FEF80EC089500240A9416161706180668
S11324B00906089500240A94121613061406050644
S11324C00895092E0394000C11F4882352F0BB0FD5
S11324D040F4BF2B11F460FF04C06F5F7F4F8F4F38
S11324E09F4F089557FD9058440F551F59F05F3F73
S11324F071F04795880F97FB991F61F09F3F79F022
S113250087950895121613061406551FF2CF4695A3
S1132510F1DF08C0161617061806991FF1CF869525
S11325207105610508940895E894BB276627772709
S1132530CB0197F908950E94261208F48FEF0895AD
S11325400E94B3120C9461120E94531238F00E943C
S11325505A1220F0952311F00C944A120C94501244
S113256011240C9495120E94721270F3959FC1F37A
S1132570950F50E0551F629FF001729FBB27F00D2D
S1132580B11D639FAA27F00DB11DAA1F649F662782
S1132590B00DA11D661F829F2227B00DA11D621FD1
S11325A0739FB00DA11D621F839FA00D611D221F8B
S11325B0749F3327A00D611D231F849F600D211D6F
S11325C0822F762F6A2F11249F5750409AF0F1F0F2
S11325D088234AF0EE0FFF1FBB1F661F771F881F5B
S11325E091505040A9F79E3F510580F00C944A1237
S11325F00C9495125F3FE4F3983ED4F38695779557
S11326006795B795F795E7959F5FC1F7FE2B880F00
S1132610911D9695879597F90895991B79E004C0C3
S1132620991F961708F0961B881F7A95C9F780950D
S1132630089597FB072E16F4009407D077FD09D070
S11326400E94471307FC05D03EF4909581959F4F57
S11326500895709561957F4F0895A29FB001B39F2F
S1132660C001A39F700D811D1124911DB29F700D97
S1132670811D1124911D08950E942D13A59F900D75
S1132680B49F900DA49F800D911D11240895AA1B41
S1132690BB1B51E107C0AA1FBB1FA617B70710F049
S11326A0A61BB70B881F991F5A95A9F7809590957B
S10D26B0BC01CD010895F894FFCF9A
S11326BA0F010100000002000100484848784C4C10
S11326CA4C004572726F21006D6D48670053696E44
S11326DA616973205669746169730062706D00538D
S11326EA704F32004300704800506172616D657426
S11326FA726F73002A20726573702F6D696E0025DC
S113270A4F3200566F6C00726573702F6D696E00DC
S10F271A2A20254F32002A20566F6C0044
S9030000FC
